{
  "abi": [
    {
      "inputs": [],
      "name": "ArrayParity",
      "type": "error"
    },
    {
      "inputs": [],
      "name": "ETHtransferFailed",
      "type": "error"
    },
    {
      "inputs": [],
      "name": "IdenticalTokens",
      "type": "error"
    },
    {
      "inputs": [],
      "name": "InvalidOperator",
      "type": "error"
    },
    {
      "inputs": [],
      "name": "InvalidReceiver",
      "type": "error"
    },
    {
      "inputs": [],
      "name": "InvalidSig",
      "type": "error"
    },
    {
      "inputs": [],
      "name": "NoLiquidity",
      "type": "error"
    },
    {
      "inputs": [],
      "name": "NoPair",
      "type": "error"
    },
    {
      "inputs": [],
      "name": "NoSwapper",
      "type": "error"
    },
    {
      "inputs": [],
      "name": "NotPairToken",
      "type": "error"
    },
    {
      "inputs": [],
      "name": "PairExists",
      "type": "error"
    },
    {
      "inputs": [],
      "name": "SigExpired",
      "type": "error"
    },
    {
      "inputs": [],
      "name": "TransferFailed",
      "type": "error"
    },
    {
      "inputs": [],
      "name": "TransferFromFailed",
      "type": "error"
    },
    {
      "anonymous": false,
      "inputs": [
        {
          "indexed": true,
          "internalType": "address",
          "name": "owner",
          "type": "address"
        },
        {
          "indexed": true,
          "internalType": "address",
          "name": "operator",
          "type": "address"
        },
        {
          "indexed": false,
          "internalType": "bool",
          "name": "approved",
          "type": "bool"
        }
      ],
      "name": "ApprovalForAll",
      "type": "event"
    },
    {
      "anonymous": false,
      "inputs": [
        {
          "indexed": true,
          "internalType": "address",
          "name": "to",
          "type": "address"
        },
        {
          "indexed": true,
          "internalType": "uint256",
          "name": "id",
          "type": "uint256"
        },
        {
          "indexed": false,
          "internalType": "uint256",
          "name": "token0amount",
          "type": "uint256"
        },
        {
          "indexed": false,
          "internalType": "uint256",
          "name": "token1amount",
          "type": "uint256"
        }
      ],
      "name": "LiquidityAdded",
      "type": "event"
    },
    {
      "anonymous": false,
      "inputs": [
        {
          "indexed": true,
          "internalType": "address",
          "name": "from",
          "type": "address"
        },
        {
          "indexed": true,
          "internalType": "uint256",
          "name": "id",
          "type": "uint256"
        },
        {
          "indexed": false,
          "internalType": "uint256",
          "name": "amount0out",
          "type": "uint256"
        },
        {
          "indexed": false,
          "internalType": "uint256",
          "name": "amount1out",
          "type": "uint256"
        }
      ],
      "name": "LiquidityRemoved",
      "type": "event"
    },
    {
      "anonymous": false,
      "inputs": [
        {
          "indexed": true,
          "internalType": "address",
          "name": "to",
          "type": "address"
        },
        {
          "indexed": false,
          "internalType": "address",
          "name": "token0",
          "type": "address"
        },
        {
          "indexed": false,
          "internalType": "address",
          "name": "token1",
          "type": "address"
        },
        {
          "indexed": true,
          "internalType": "uint256",
          "name": "id",
          "type": "uint256"
        }
      ],
      "name": "PairCreated",
      "type": "event"
    },
    {
      "anonymous": false,
      "inputs": [
        {
          "indexed": true,
          "internalType": "address",
          "name": "to",
          "type": "address"
        },
        {
          "indexed": true,
          "internalType": "uint256",
          "name": "id",
          "type": "uint256"
        },
        {
          "indexed": false,
          "internalType": "address",
          "name": "tokenIn",
          "type": "address"
        },
        {
          "indexed": false,
          "internalType": "uint256",
          "name": "amountIn",
          "type": "uint256"
        },
        {
          "indexed": false,
          "internalType": "uint256",
          "name": "amountOut",
          "type": "uint256"
        }
      ],
      "name": "Swapped",
      "type": "event"
    },
    {
      "anonymous": false,
      "inputs": [
        {
          "indexed": true,
          "internalType": "address",
          "name": "operator",
          "type": "address"
        },
        {
          "indexed": true,
          "internalType": "address",
          "name": "from",
          "type": "address"
        },
        {
          "indexed": true,
          "internalType": "address",
          "name": "to",
          "type": "address"
        },
        {
          "indexed": false,
          "internalType": "uint256[]",
          "name": "ids",
          "type": "uint256[]"
        },
        {
          "indexed": false,
          "internalType": "uint256[]",
          "name": "amounts",
          "type": "uint256[]"
        }
      ],
      "name": "TransferBatch",
      "type": "event"
    },
    {
      "anonymous": false,
      "inputs": [
        {
          "indexed": true,
          "internalType": "address",
          "name": "operator",
          "type": "address"
        },
        {
          "indexed": true,
          "internalType": "address",
          "name": "from",
          "type": "address"
        },
        {
          "indexed": true,
          "internalType": "address",
          "name": "to",
          "type": "address"
        },
        {
          "indexed": false,
          "internalType": "uint256",
          "name": "id",
          "type": "uint256"
        },
        {
          "indexed": false,
          "internalType": "uint256",
          "name": "amount",
          "type": "uint256"
        }
      ],
      "name": "TransferSingle",
      "type": "event"
    },
    {
      "inputs": [],
      "name": "DOMAIN_SEPARATOR",
      "outputs": [
        {
          "internalType": "bytes32",
          "name": "",
          "type": "bytes32"
        }
      ],
      "stateMutability": "view",
      "type": "function"
    },
    {
      "inputs": [
        {
          "internalType": "address",
          "name": "to",
          "type": "address"
        },
        {
          "internalType": "uint256",
          "name": "id",
          "type": "uint256"
        },
        {
          "internalType": "uint256",
          "name": "token0amount",
          "type": "uint256"
        },
        {
          "internalType": "uint256",
          "name": "token1amount",
          "type": "uint256"
        },
        {
          "internalType": "bytes",
          "name": "data",
          "type": "bytes"
        }
      ],
      "name": "addLiquidity",
      "outputs": [
        {
          "internalType": "uint256",
          "name": "liq",
          "type": "uint256"
        }
      ],
      "stateMutability": "payable",
      "type": "function"
    },
    {
      "inputs": [
        {
          "internalType": "address",
          "name": "",
          "type": "address"
        },
        {
          "internalType": "uint256",
          "name": "",
          "type": "uint256"
        }
      ],
      "name": "balanceOf",
      "outputs": [
        {
          "internalType": "uint256",
          "name": "",
          "type": "uint256"
        }
      ],
      "stateMutability": "view",
      "type": "function"
    },
    {
      "inputs": [
        {
          "internalType": "address[]",
          "name": "owners",
          "type": "address[]"
        },
        {
          "internalType": "uint256[]",
          "name": "ids",
          "type": "uint256[]"
        }
      ],
      "name": "balanceOfBatch",
      "outputs": [
        {
          "internalType": "uint256[]",
          "name": "balances",
          "type": "uint256[]"
        }
      ],
      "stateMutability": "view",
      "type": "function"
    },
    {
      "inputs": [],
      "name": "baseURI",
      "outputs": [
        {
          "internalType": "string",
          "name": "",
          "type": "string"
        }
      ],
      "stateMutability": "view",
      "type": "function"
    },
    {
      "inputs": [
        {
          "internalType": "address",
          "name": "to",
          "type": "address"
        },
        {
          "internalType": "address",
          "name": "tokenA",
          "type": "address"
        },
        {
          "internalType": "address",
          "name": "tokenB",
          "type": "address"
        },
        {
          "internalType": "uint112",
          "name": "tokenAamount",
          "type": "uint112"
        },
        {
          "internalType": "uint112",
          "name": "tokenBamount",
          "type": "uint112"
        },
        {
          "internalType": "contract IPairSwap",
          "name": "swapper",
          "type": "address"
        },
        {
          "internalType": "uint8",
          "name": "fee",
          "type": "uint8"
        },
        {
          "internalType": "bytes",
          "name": "data",
          "type": "bytes"
        }
      ],
      "name": "createPair",
      "outputs": [
        {
          "internalType": "uint256",
          "name": "id",
          "type": "uint256"
        },
        {
          "internalType": "uint256",
          "name": "liq",
          "type": "uint256"
        }
      ],
      "stateMutability": "payable",
      "type": "function"
    },
    {
      "inputs": [
        {
          "internalType": "address",
          "name": "",
          "type": "address"
        },
        {
          "internalType": "address",
          "name": "",
          "type": "address"
        }
      ],
      "name": "isApprovedForAll",
      "outputs": [
        {
          "internalType": "bool",
          "name": "",
          "type": "bool"
        }
      ],
      "stateMutability": "view",
      "type": "function"
    },
    {
      "inputs": [
        {
          "internalType": "bytes[]",
          "name": "data",
          "type": "bytes[]"
        }
      ],
      "name": "multicall",
      "outputs": [
        {
          "internalType": "bytes[]",
          "name": "results",
          "type": "bytes[]"
        }
      ],
      "stateMutability": "nonpayable",
      "type": "function"
    },
    {
      "inputs": [],
      "name": "name",
      "outputs": [
        {
          "internalType": "string",
          "name": "",
          "type": "string"
        }
      ],
      "stateMutability": "view",
      "type": "function"
    },
    {
      "inputs": [
        {
          "internalType": "address",
          "name": "",
          "type": "address"
        }
      ],
      "name": "nonces",
      "outputs": [
        {
          "internalType": "uint256",
          "name": "",
          "type": "uint256"
        }
      ],
      "stateMutability": "view",
      "type": "function"
    },
    {
      "inputs": [
        {
          "internalType": "uint256",
          "name": "",
          "type": "uint256"
        }
      ],
      "name": "pairs",
      "outputs": [
        {
          "internalType": "address",
          "name": "token0",
          "type": "address"
        },
        {
          "internalType": "address",
          "name": "token1",
          "type": "address"
        },
        {
          "internalType": "contract IPairSwap",
          "name": "swapper",
          "type": "address"
        },
        {
          "internalType": "uint112",
          "name": "reserve0",
          "type": "uint112"
        },
        {
          "internalType": "uint112",
          "name": "reserve1",
          "type": "uint112"
        },
        {
          "internalType": "uint8",
          "name": "fee",
          "type": "uint8"
        }
      ],
      "stateMutability": "view",
      "type": "function"
    },
    {
      "inputs": [
        {
          "internalType": "address",
          "name": "owner",
          "type": "address"
        },
        {
          "internalType": "address",
          "name": "operator",
          "type": "address"
        },
        {
          "internalType": "bool",
          "name": "approved",
          "type": "bool"
        },
        {
          "internalType": "uint256",
          "name": "deadline",
          "type": "uint256"
        },
        {
          "internalType": "uint8",
          "name": "v",
          "type": "uint8"
        },
        {
          "internalType": "bytes32",
          "name": "r",
          "type": "bytes32"
        },
        {
          "internalType": "bytes32",
          "name": "s",
          "type": "bytes32"
        }
      ],
      "name": "permit",
      "outputs": [],
      "stateMutability": "nonpayable",
      "type": "function"
    },
    {
      "inputs": [
        {
          "internalType": "address",
          "name": "to",
          "type": "address"
        },
        {
          "internalType": "uint256",
          "name": "id",
          "type": "uint256"
        },
        {
          "internalType": "uint256",
          "name": "liq",
          "type": "uint256"
        }
      ],
      "name": "removeLiquidity",
      "outputs": [
        {
          "internalType": "uint256",
          "name": "amount0out",
          "type": "uint256"
        },
        {
          "internalType": "uint256",
          "name": "amount1out",
          "type": "uint256"
        }
      ],
      "stateMutability": "payable",
      "type": "function"
    },
    {
      "inputs": [
        {
          "internalType": "address",
          "name": "from",
          "type": "address"
        },
        {
          "internalType": "address",
          "name": "to",
          "type": "address"
        },
        {
          "internalType": "uint256[]",
          "name": "ids",
          "type": "uint256[]"
        },
        {
          "internalType": "uint256[]",
          "name": "amounts",
          "type": "uint256[]"
        },
        {
          "internalType": "bytes",
          "name": "data",
          "type": "bytes"
        }
      ],
      "name": "safeBatchTransferFrom",
      "outputs": [],
      "stateMutability": "nonpayable",
      "type": "function"
    },
    {
      "inputs": [
        {
          "internalType": "address",
          "name": "from",
          "type": "address"
        },
        {
          "internalType": "address",
          "name": "to",
          "type": "address"
        },
        {
          "internalType": "uint256",
          "name": "id",
          "type": "uint256"
        },
        {
          "internalType": "uint256",
          "name": "amount",
          "type": "uint256"
        },
        {
          "internalType": "bytes",
          "name": "data",
          "type": "bytes"
        }
      ],
      "name": "safeTransferFrom",
      "outputs": [],
      "stateMutability": "nonpayable",
      "type": "function"
    },
    {
      "inputs": [
        {
          "internalType": "address",
          "name": "operator",
          "type": "address"
        },
        {
          "internalType": "bool",
          "name": "approved",
          "type": "bool"
        }
      ],
      "name": "setApprovalForAll",
      "outputs": [],
      "stateMutability": "nonpayable",
      "type": "function"
    },
    {
      "inputs": [
        {
          "internalType": "bytes4",
          "name": "interfaceId",
          "type": "bytes4"
        }
      ],
      "name": "supportsInterface",
      "outputs": [
        {
          "internalType": "bool",
          "name": "",
          "type": "bool"
        }
      ],
      "stateMutability": "pure",
      "type": "function"
    },
    {
      "inputs": [
        {
          "internalType": "address",
          "name": "to",
          "type": "address"
        },
        {
          "internalType": "uint256",
          "name": "id",
          "type": "uint256"
        },
        {
          "internalType": "address",
          "name": "tokenIn",
          "type": "address"
        },
        {
          "internalType": "uint256",
          "name": "amountIn",
          "type": "uint256"
        }
      ],
      "name": "swap",
      "outputs": [
        {
          "internalType": "uint256",
          "name": "amountOut",
          "type": "uint256"
        }
      ],
      "stateMutability": "payable",
      "type": "function"
    },
    {
      "inputs": [],
      "name": "symbol",
      "outputs": [
        {
          "internalType": "string",
          "name": "",
          "type": "string"
        }
      ],
      "stateMutability": "view",
      "type": "function"
    },
    {
      "inputs": [],
      "name": "totalSupply",
      "outputs": [
        {
          "internalType": "uint256",
          "name": "",
          "type": "uint256"
        }
      ],
      "stateMutability": "view",
      "type": "function"
    },
    {
      "inputs": [
        {
          "internalType": "uint256",
          "name": "",
          "type": "uint256"
        }
      ],
      "name": "uri",
      "outputs": [
        {
          "internalType": "string",
          "name": "",
          "type": "string"
        }
      ],
      "stateMutability": "view",
      "type": "function"
    }
  ],
  "bytecode": {
    "object": "0x610100604052600b60c08190526a282620a1a2a427a62222a960a91b60e09081526200002f9160039190620000fb565b503480156200003d57600080fd5b50466080526200004c62000055565b60a05262000265565b604080518082018252600681526548656c696f7360d01b6020918201528151808301835260018152603160f81b818301529151600092620000e0927f8b73c3c69bb8fe3d512ecc4cf759cc79239f7b179b0ffacaa9a75d522b39400f927f7d584df37c9fc037eb4817b96e32f00682ba9959050824adee0d12e44eddf28892914691309101620001a1565b60405160208183030381529060405280519060200120905090565b828054620001099062000228565b90600052602060002090601f0160209004810192826200012d576000855562000178565b82601f106200014857805160ff191683800117855562000178565b8280016001018555821562000178579182015b82811115620001785782518255916020019190600101906200015b565b50620001869291506200018a565b5090565b5b808211156200018657600081556001016200018b565b85815260006020868184015260a0604084015285518060a085015260005b81811015620001dd5787810183015185820160c001528201620001bf565b81811115620001f057600060c083870101525b5060608401869052601f01601f1916830160c00191506200021e905060808301846001600160a01b03169052565b9695505050505050565b600181811c908216806200023d57607f821691505b602082108114156200025f57634e487b7160e01b600052602260045260246000fd5b50919050565b60805160a051612bcb6200028b6000396000610d2d01526000610cf80152612bcb6000f3fe6080604052600436106101295760003560e01c80637ecebe00116100ab578063b91ac7881161006f578063b91ac78814610379578063e38192e314610438578063e985e9c51461044b578063f242432a14610486578063f3b39b6c146104a6578063f51cc7dd146104b957600080fd5b80637ecebe00146102bc5780638a0ccd56146102e957806395d89b41146102fc578063a22cb4651461032c578063ac9650d81461034c57600080fd5b80632eb2c2d6116100f25780632eb2c2d61461021b57806333941b461461023d5780633644e515146102655780634e1273f41461027a5780636c0360eb146102a757600080fd5b8062fdd58e1461012e57806301ffc9a71461017657806306fdde03146101a65780630e89341c146101e557806318160ddd14610205575b600080fd5b34801561013a57600080fd5b50610163610149366004611ffc565b600060208181529281526040808220909352908152205481565b6040519081526020015b60405180910390f35b34801561018257600080fd5b5061019661019136600461203e565b6104d9565b604051901515815260200161016d565b3480156101b257600080fd5b506101d86040518060400160405280600681526020016548656c696f7360d01b81525081565b60405161016d91906120ba565b3480156101f157600080fd5b506101d86102003660046120cd565b61052b565b34801561021157600080fd5b5061016360045481565b34801561022757600080fd5b5061023b610236366004612232565b6105bf565b005b61025061024b366004612354565b610835565b6040805192835260208301919091520161016d565b34801561027157600080fd5b50610163610cf4565b34801561028657600080fd5b5061029a610295366004612416565b610d4f565b60405161016d9190612512565b3480156102b357600080fd5b506101d8610e5a565b3480156102c857600080fd5b506101636102d7366004612525565b60026020526000908152604090205481565b6101636102f7366004612542565b610ee8565b34801561030857600080fd5b506101d86040518060400160405280600481526020016348454c4960e01b81525081565b34801561033857600080fd5b5061023b61034736600461259a565b6111fd565b34801561035857600080fd5b5061036c6103673660046125cf565b611269565b60405161016d9190612643565b34801561038557600080fd5b506103ec6103943660046120cd565b60066020526000908152604090208054600182015460028301546003909301546001600160a01b039283169391831692909116906001600160701b0380821691600160701b810490911690600160e01b900460ff1686565b604080516001600160a01b039788168152958716602087015293909516928401929092526001600160701b03908116606084015216608082015260ff90911660a082015260c00161016d565b6102506104463660046126a5565b6113be565b34801561045757600080fd5b506101966104663660046126da565b600160209081526000928352604080842090915290825290205460ff1681565b34801561049257600080fd5b5061023b6104a1366004612713565b6115d4565b6101636104b436600461277b565b6117b0565b3480156104c557600080fd5b5061023b6104d43660046127ed565b611a31565b60006301ffc9a760e01b6001600160e01b03198316148061050a5750636cdb3d1360e11b6001600160e01b03198316145b8061052557506303a24d0760e21b6001600160e01b03198316145b92915050565b60606003805461053a90612862565b80601f016020809104026020016040519081016040528092919081815260200182805461056690612862565b80156105b35780601f10610588576101008083540402835291602001916105b3565b820191906000526020600020905b81548152906001019060200180831161059657829003601f168201915b50505050509050919050565b8251825181146105e257604051630bb9738760e31b815260040160405180910390fd5b336001600160a01b0387161480159061061f57506001600160a01b038616600090815260016020908152604080832033845290915290205460ff16155b1561063d5760405163ccea9e6f60e01b815260040160405180910390fd5b60005b8181101561071257600085828151811061065c5761065c61289d565b60200260200101519050600085838151811061067a5761067a61289d565b60200260200101519050806000808b6001600160a01b03166001600160a01b03168152602001908152602001600020600084815260200190815260200160002060008282546106c991906128c9565b90915550506001600160a01b038816600090815260208181526040808320858452909152812080548392906106ff9084906128e0565b9091555050600190920191506106409050565b50846001600160a01b0316866001600160a01b0316336001600160a01b03167f4a39dc06d4c0dbc64b70af90fd698a233a518aa5d07e595d983b8c0526c8f7fb87876040516107629291906128f8565b60405180910390a46001600160a01b0385163b6108035760405163bc197c8160e01b808252906001600160a01b0387169063bc197c81906107af9033908b908a908a908a90600401612926565b6020604051808303816000875af11580156107ce573d6000803e3d6000fd5b505050506040513d601f19601f820116820180604052508101906107f29190612984565b6001600160e01b031916141561080f565b6001600160a01b038516155b1561082d57604051631e4ec46b60e01b815260040160405180910390fd5b505050505050565b600080886001600160a01b03168a6001600160a01b0316141561086b57604051635c6d7b7360e01b815260040160405180910390fd5b6001600160a01b038616158061088957506001600160a01b0386163b155b156108a7576040516324fe885560e01b815260040160405180910390fd5b898989896001600160a01b0380851690841611156108cb57508b92508c91508990508a5b6001600160a01b03808516600090815260076020908152604080832087851684528252808320938e16835292815282822060ff8d168352905220541561092457604051633d77e89160e01b815260040160405180910390fd5b3415610954576000935034915061094f6001600160a01b03841633306001600160701b038516611c3c565b610990565b6109726001600160a01b03851633306001600160701b038616611c3c565b6109906001600160a01b03841633306001600160701b038516611c3c565b60046000815461099f906129a1565b91905081905595508560076000866001600160a01b03166001600160a01b031681526020019081526020016000206000856001600160a01b03166001600160a01b0316815260200190815260200160002060008c6001600160a01b03166001600160a01b0316815260200190815260200160002060008b60ff168152602001908152602001600020819055506040518060c00160405280856001600160a01b03168152602001846001600160a01b031681526020018b6001600160a01b03168152602001836001600160701b03168152602001826001600160701b031681526020018a60ff168152506006600088815260200190815260200160002060008201518160000160006101000a8154816001600160a01b0302191690836001600160a01b0316021790555060208201518160010160006101000a8154816001600160a01b0302191690836001600160a01b0316021790555060408201518160020160006101000a8154816001600160a01b0302191690836001600160a01b0316021790555060608201518160030160006101000a8154816001600160701b0302191690836001600160701b03160217905550608082015181600301600e6101000a8154816001600160701b0302191690836001600160701b0316021790555060a082015181600301601c6101000a81548160ff021916908360ff160217905550905050896001600160a01b031663422f10438784846040518463ffffffff1660e01b8152600401610bea939291909283526001600160701b03918216602084015216604082015260600190565b6020604051808303816000875af1158015610c09573d6000803e3d6000fd5b505050506040513d601f19601f82011682018060405250810190610c2d91906129bc565b9450610c718f87878b8b8080601f016020809104026020016040519081016040528093929190818152602001838380828437600092019190915250611ca392505050565b846005600088815260200190815260200160002081905550858f6001600160a01b03167f0d3648bd0f6ba80134a33ba9275ac585d9d315f0ad8355cddefde31afa28d0e98686604051610cda9291906001600160a01b0392831681529116602082015260400190565b60405180910390a350505050995099975050505050505050565b60007f00000000000000000000000000000000000000000000000000000000000000004614610d2a57610d25611dec565b905090565b507f000000000000000000000000000000000000000000000000000000000000000090565b81518151606091908114610d7657604051630bb9738760e31b815260040160405180910390fd5b806001600160401b03811115610d8e57610d8e6120e6565b604051908082528060200260200182016040528015610db7578160200160208202803683370190505b50915060005b81811015610e5257600080868381518110610dda57610dda61289d565b60200260200101516001600160a01b03166001600160a01b031681526020019081526020016000206000858381518110610e1657610e1661289d565b6020026020010151815260200190815260200160002054838281518110610e3f57610e3f61289d565b6020908102919091010152600101610dbd565b505092915050565b60038054610e6790612862565b80601f0160208091040260200160405190810160405280929190818152602001828054610e9390612862565b8015610ee05780601f10610eb557610100808354040283529160200191610ee0565b820191906000526020600020905b815481529060010190602001808311610ec357829003601f168201915b505050505081565b6000600454841115610f0d57604051631830f95560e11b815260040160405180910390fd5b600084815260066020526040902080546001600160a01b03858116911614801590610f48575060018101546001600160a01b03858116911614155b15610f6657604051633172a7f760e01b815260040160405180910390fd5b6001600160a01b038416610f7c57349250610f91565b610f916001600160a01b038516333086611c3c565b6002810154604051634326434960e01b8152600481018790526001600160a01b03868116602483015260448201869052909116906343264349906064016020604051808303816000875af1158015610fed573d6000803e3d6000fd5b505050506040513d601f19601f8201168201806040525081019061101191906129bc565b60018201549092506001600160a01b03858116911614156110fc5780546001600160a01b03166110535761104e6001600160a01b03871683611e90565b611069565b8054611069906001600160a01b03168784611ec1565b6003810180548391906000906110899084906001600160701b03166129d5565b92506101000a8154816001600160701b0302191690836001600160701b031602179055508281600301600e8282829054906101000a90046001600160701b03166110d391906129fd565b92506101000a8154816001600160701b0302191690836001600160701b031602179055506111a4565b6001810154611115906001600160a01b03168784611ec1565b6003810180548491906000906111359084906001600160701b03166129fd565b92506101000a8154816001600160701b0302191690836001600160701b031602179055508181600301600e8282829054906101000a90046001600160701b031661117f91906129d5565b92506101000a8154816001600160701b0302191690836001600160701b031602179055505b604080516001600160a01b0386811682526020820186905291810184905286918816907fd83a63a0ebf8fb6a344f0e3dc86dfc975e6009f82e455acc6622cc3fd7c5928d9060600160405180910390a350949350505050565b3360008181526001602090815260408083206001600160a01b03871680855290835292819020805460ff191686151590811790915590519081529192917f17307eab39ab6107e8899845ad3d59bd9653f200f220920489ca2b5937696c31910160405180910390a35050565b6060816001600160401b03811115611283576112836120e6565b6040519080825280602002602001820160405280156112b657816020015b60608152602001906001900390816112a15790505b50905060005b828110156113b757600080308686858181106112da576112da61289d565b90506020028101906112ec9190612a28565b6040516112fa929190612a6e565b600060405180830381855af49150503d8060008114611335576040519150601f19603f3d011682016040523d82523d6000602084013e61133a565b606091505b50915091508161138f5760448151101561135357600080fd5b6004810190508080602001905181019061136d9190612a7e565b60405162461bcd60e51b815260040161138691906120ba565b60405180910390fd5b808484815181106113a2576113a261289d565b602090810291909101015250506001016112bc565b5092915050565b6000806004548411156113e457604051631830f95560e11b815260040160405180910390fd5b60008481526006602052604090206113fd338686611f19565b6002810154604051639d7de6b360e01b815260048101879052602481018690526001600160a01b0390911690639d7de6b39060440160408051808303816000875af1158015611450573d6000803e3d6000fd5b505050506040513d601f19601f820116820180604052508101906114749190612aeb565b825491945092506001600160a01b03166114a05761149b6001600160a01b03871684611e90565b6114b6565b80546114b6906001600160a01b03168785611ec1565b60018101546114cf906001600160a01b03168784611ec1565b6003810180548491906000906114ef9084906001600160701b03166129d5565b92506101000a8154816001600160701b0302191690836001600160701b031602179055508181600301600e8282829054906101000a90046001600160701b031661153991906129d5565b92506101000a8154816001600160701b0302191690836001600160701b031602179055508360056000878152602001908152602001600020600082825461158091906128c9565b9091555050604080518481526020810184905286916001600160a01b038916917f1dc8bb69df2b8e91fbdcbfcf93d951b3f0000f085a95fe3f7946d6161439245d910160405180910390a350935093915050565b336001600160a01b0386161480159061161157506001600160a01b038516600090815260016020908152604080832033845290915290205460ff16155b1561162f5760405163ccea9e6f60e01b815260040160405180910390fd5b6001600160a01b038516600090815260208181526040808320868452909152812080548492906116609084906128c9565b90915550506001600160a01b038416600090815260208181526040808320868452909152812080548492906116969084906128e0565b909155505060408051848152602081018490526001600160a01b03808716929088169133917fc3d58168c5ae7397731d063d5bbf3d657854427343f4c083240f7aacaa2d0f62910160405180910390a46001600160a01b0384163b61177f5760405163f23a6e6160e01b808252906001600160a01b0386169063f23a6e619061172b9033908a90899089908990600401612b0f565b6020604051808303816000875af115801561174a573d6000803e3d6000fd5b505050506040513d601f19601f8201168201806040525081019061176e9190612984565b6001600160e01b031916141561178b565b6001600160a01b038416155b156117a957604051631e4ec46b60e01b815260040160405180910390fd5b5050505050565b60006004548611156117d557604051631830f95560e11b815260040160405180910390fd5b600086815260066020526040902080546001600160a01b031661181d5760018101546001600160701b0334169650611818906001600160a01b0316333088611c3c565b61184e565b8054611834906001600160a01b0316333089611c3c565b600181015461184e906001600160a01b0316333088611c3c565b600281015460405163422f104360e01b81526004810189905260248101889052604481018790526001600160a01b039091169063422f1043906064016020604051808303816000875af11580156118a9573d6000803e3d6000fd5b505050506040513d601f19601f820116820180604052508101906118cd91906129bc565b9150816118ed57604051636180f03f60e11b815260040160405180910390fd5b60038101805487919060009061190d9084906001600160701b03166129fd565b92506101000a8154816001600160701b0302191690836001600160701b031602179055508481600301600e8282829054906101000a90046001600160701b031661195791906129fd565b92506101000a8154816001600160701b0302191690836001600160701b031602179055506119bd88888487878080601f016020809104026020016040519081016040528093929190818152602001838380828437600092019190915250611ca392505050565b600087815260056020526040812080548492906119db9084906128e0565b9091555050604080518781526020810187905288916001600160a01b038b16917f64b83944e79c3ce8d4c297411de637c3e102d064677aac0c163976ebdcd6f50e910160405180910390a3509695505050505050565b83421115611a5257604051633ba234a360e01b815260040160405180910390fd5b6000611a5c610cf4565b6001600160a01b0389811660008181526002602090815260409182902080546001810190915582517f7bf72c3e57bc00556754c7454ead7d72d1c0e263909e7c643fbc0d1e0f3c3e748184015280840194909452938c1660608401528a1515608084015260a083019390935260c08083018a90528151808403909101815260e08301909152805192019190912061190160f01b6101008301526101028201929092526101228101919091526101420160408051601f198184030181528282528051602091820120600080855291840180845281905260ff88169284019290925260608301869052608083018590529092509060019060a0016020604051602081039080840390855afa158015611b76573d6000803e3d6000fd5b5050604051601f1901519150506001600160a01b0381161580611bab5750886001600160a01b0316816001600160a01b031614155b15611bc95760405163c90c66b560e01b815260040160405180910390fd5b50506001600160a01b038781166000818152600160209081526040808320948b1680845294825291829020805460ff19168a151590811790915591519182527f17307eab39ab6107e8899845ad3d59bd9653f200f220920489ca2b5937696c31910160405180910390a350505050505050565b60006040516323b872dd60e01b81526001600160a01b03851660048201526001600160a01b038416602482015282604482015260008060648360008a5af1915050611c8681611f9d565b6117a957604051631e4e7d0960e21b815260040160405180910390fd5b6001600160a01b03841660009081526020818152604080832086845290915281208054849290611cd49084906128e0565b909155505060408051848152602081018490526001600160a01b0386169160009133917fc3d58168c5ae7397731d063d5bbf3d657854427343f4c083240f7aacaa2d0f62910160405180910390a46001600160a01b0384163b611dbc5760405163f23a6e6160e01b808252906001600160a01b0386169063f23a6e6190611d68903390600090899089908990600401612b0f565b6020604051808303816000875af1158015611d87573d6000803e3d6000fd5b505050506040513d601f19601f82011682018060405250810190611dab9190612984565b6001600160e01b0319161415611dc8565b6001600160a01b038416155b15611de657604051631e4ec46b60e01b815260040160405180910390fd5b50505050565b604080518082018252600681526548656c696f7360d01b6020918201528151808301835260018152603160f81b818301529151600092611e75927f8b73c3c69bb8fe3d512ecc4cf759cc79239f7b179b0ffacaa9a75d522b39400f927f7d584df37c9fc037eb4817b96e32f00682ba9959050824adee0d12e44eddf28892914691309101612b54565b60405160208183030381529060405280519060200120905090565b600080600080600085875af1905080611ebc576040516311e099f960e11b815260040160405180910390fd5b505050565b600060405163a9059cbb60e01b81526001600160a01b03841660048201528260248201526000806044836000895af1915050611efc81611f9d565b611de6576040516312171d8360e31b815260040160405180910390fd5b6001600160a01b03831660009081526020818152604080832085845290915281208054839290611f4a9084906128c9565b909155505060408051838152602081018390526000916001600160a01b0386169133917fc3d58168c5ae7397731d063d5bbf3d657854427343f4c083240f7aacaa2d0f62910160405180910390a4505050565b60003d82611faf57806000803e806000fd5b8060208114611fc7578015611fd85760009250611fdd565b816000803e60005115159250611fdd565b600192505b5050919050565b6001600160a01b0381168114611ff957600080fd5b50565b6000806040838503121561200f57600080fd5b823561201a81611fe4565b946020939093013593505050565b6001600160e01b031981168114611ff957600080fd5b60006020828403121561205057600080fd5b813561205b81612028565b9392505050565b60005b8381101561207d578181015183820152602001612065565b83811115611de65750506000910152565b600081518084526120a6816020860160208601612062565b601f01601f19169290920160200192915050565b60208152600061205b602083018461208e565b6000602082840312156120df57600080fd5b5035919050565b634e487b7160e01b600052604160045260246000fd5b604051601f8201601f191681016001600160401b0381118282101715612124576121246120e6565b604052919050565b60006001600160401b03821115612145576121456120e6565b5060051b60200190565b600082601f83011261216057600080fd5b813560206121756121708361212c565b6120fc565b82815260059290921b8401810191818101908684111561219457600080fd5b8286015b848110156121af5780358352918301918301612198565b509695505050505050565b60006001600160401b038211156121d3576121d36120e6565b50601f01601f191660200190565b600082601f8301126121f257600080fd5b8135612200612170826121ba565b81815284602083860101111561221557600080fd5b816020850160208301376000918101602001919091529392505050565b600080600080600060a0868803121561224a57600080fd5b853561225581611fe4565b9450602086013561226581611fe4565b935060408601356001600160401b038082111561228157600080fd5b61228d89838a0161214f565b945060608801359150808211156122a357600080fd5b6122af89838a0161214f565b935060808801359150808211156122c557600080fd5b506122d2888289016121e1565b9150509295509295909350565b80356001600160701b03811681146122f657600080fd5b919050565b803560ff811681146122f657600080fd5b60008083601f84011261231e57600080fd5b5081356001600160401b0381111561233557600080fd5b60208301915083602082850101111561234d57600080fd5b9250929050565b60008060008060008060008060006101008a8c03121561237357600080fd5b893561237e81611fe4565b985060208a013561238e81611fe4565b975060408a013561239e81611fe4565b96506123ac60608b016122df565b95506123ba60808b016122df565b945060a08a01356123ca81611fe4565b93506123d860c08b016122fb565b925060e08a01356001600160401b038111156123f357600080fd5b6123ff8c828d0161230c565b915080935050809150509295985092959850929598565b6000806040838503121561242957600080fd5b82356001600160401b038082111561244057600080fd5b818501915085601f83011261245457600080fd5b813560206124646121708361212c565b82815260059290921b8401810191818101908984111561248357600080fd5b948201945b838610156124aa57853561249b81611fe4565b82529482019490820190612488565b965050860135925050808211156124c057600080fd5b506124cd8582860161214f565b9150509250929050565b600081518084526020808501945080840160005b83811015612507578151875295820195908201906001016124eb565b509495945050505050565b60208152600061205b60208301846124d7565b60006020828403121561253757600080fd5b813561205b81611fe4565b6000806000806080858703121561255857600080fd5b843561256381611fe4565b935060208501359250604085013561257a81611fe4565b9396929550929360600135925050565b803580151581146122f657600080fd5b600080604083850312156125ad57600080fd5b82356125b881611fe4565b91506125c66020840161258a565b90509250929050565b600080602083850312156125e257600080fd5b82356001600160401b03808211156125f957600080fd5b818501915085601f83011261260d57600080fd5b81358181111561261c57600080fd5b8660208260051b850101111561263157600080fd5b60209290920196919550909350505050565b6000602080830181845280855180835260408601915060408160051b870101925083870160005b8281101561269857603f1988860301845261268685835161208e565b9450928501929085019060010161266a565b5092979650505050505050565b6000806000606084860312156126ba57600080fd5b83356126c581611fe4565b95602085013595506040909401359392505050565b600080604083850312156126ed57600080fd5b82356126f881611fe4565b9150602083013561270881611fe4565b809150509250929050565b600080600080600060a0868803121561272b57600080fd5b853561273681611fe4565b9450602086013561274681611fe4565b9350604086013592506060860135915060808601356001600160401b0381111561276f57600080fd5b6122d2888289016121e1565b60008060008060008060a0878903121561279457600080fd5b863561279f81611fe4565b955060208701359450604087013593506060870135925060808701356001600160401b038111156127cf57600080fd5b6127db89828a0161230c565b979a9699509497509295939492505050565b600080600080600080600060e0888a03121561280857600080fd5b873561281381611fe4565b9650602088013561282381611fe4565b95506128316040890161258a565b945060608801359350612846608089016122fb565b925060a0880135915060c0880135905092959891949750929550565b600181811c9082168061287657607f821691505b6020821081141561289757634e487b7160e01b600052602260045260246000fd5b50919050565b634e487b7160e01b600052603260045260246000fd5b634e487b7160e01b600052601160045260246000fd5b6000828210156128db576128db6128b3565b500390565b600082198211156128f3576128f36128b3565b500190565b60408152600061290b60408301856124d7565b828103602084015261291d81856124d7565b95945050505050565b6001600160a01b0386811682528516602082015260a060408201819052600090612952908301866124d7565b828103606084015261296481866124d7565b90508281036080840152612978818561208e565b98975050505050505050565b60006020828403121561299657600080fd5b815161205b81612028565b60006000198214156129b5576129b56128b3565b5060010190565b6000602082840312156129ce57600080fd5b5051919050565b60006001600160701b03838116908316818110156129f5576129f56128b3565b039392505050565b60006001600160701b03808316818516808303821115612a1f57612a1f6128b3565b01949350505050565b6000808335601e19843603018112612a3f57600080fd5b8301803591506001600160401b03821115612a5957600080fd5b60200191503681900382131561234d57600080fd5b8183823760009101908152919050565b600060208284031215612a9057600080fd5b81516001600160401b03811115612aa657600080fd5b8201601f81018413612ab757600080fd5b8051612ac5612170826121ba565b818152856020838501011115612ada57600080fd5b61291d826020830160208601612062565b60008060408385031215612afe57600080fd5b505080516020909101519092909150565b6001600160a01b03868116825285166020820152604081018490526060810183905260a060808201819052600090612b499083018461208e565b979650505050505050565b85815284602082015260a060408201526000612b7360a083018661208e565b6060830194909452506001600160a01b0391909116608090910152939250505056fea2646970667358221220e9cbcb54509f38d16d912b589414fd2289327c730e754b6af70bf64f7204694c64736f6c634300080a0033",
    "linkReferences": {}
  }
}