{
  "abi": [
    {
      "inputs": [],
      "name": "InsuffLiquidityBurn",
      "type": "error"
    },
    {
      "inputs": [],
      "name": "InsuffLiquidityMint",
      "type": "error"
    },
    {
      "inputs": [],
      "name": "InvalidInputToken",
      "type": "error"
    },
    {
      "inputs": [
        {
          "internalType": "uint256",
          "name": "id",
          "type": "uint256"
        },
        {
          "internalType": "uint256",
          "name": "token0amount",
          "type": "uint256"
        },
        {
          "internalType": "uint256",
          "name": "token1amount",
          "type": "uint256"
        }
      ],
      "name": "addLiquidity",
      "outputs": [
        {
          "internalType": "uint256",
          "name": "liq",
          "type": "uint256"
        }
      ],
      "stateMutability": "nonpayable",
      "type": "function"
    },
    {
      "inputs": [
        {
          "internalType": "uint256",
          "name": "id",
          "type": "uint256"
        },
        {
          "internalType": "uint256",
          "name": "lp",
          "type": "uint256"
        }
      ],
      "name": "removeLiquidity",
      "outputs": [
        {
          "internalType": "uint256",
          "name": "amount0out",
          "type": "uint256"
        },
        {
          "internalType": "uint256",
          "name": "amount1out",
          "type": "uint256"
        }
      ],
      "stateMutability": "nonpayable",
      "type": "function"
    },
    {
      "inputs": [
        {
          "internalType": "uint256",
          "name": "id",
          "type": "uint256"
        },
        {
          "internalType": "address",
          "name": "tokenIn",
          "type": "address"
        },
        {
          "internalType": "uint256",
          "name": "amountIn",
          "type": "uint256"
        }
      ],
      "name": "swap",
      "outputs": [
        {
          "internalType": "uint256",
          "name": "amountOut",
          "type": "uint256"
        }
      ],
      "stateMutability": "nonpayable",
      "type": "function"
    }
  ],
  "bytecode": {
    "object": "0x608060405234801561001057600080fd5b506107fb806100206000396000f3fe608060405234801561001057600080fd5b50600436106100415760003560e01c8063422f104314610046578063432643491461006c5780639d7de6b31461007f575b600080fd5b6100596100543660046105a3565b6100a7565b6040519081526020015b60405180910390f35b61005961007a3660046105e7565b610216565b61009261008d36600461061f565b610318565b60408051928352602083019190915201610063565b60405163172358f160e31b8152600481018490526000908190339063b91ac7889060240160c060405180830381865afa1580156100e8573d6000803e3d6000fd5b505050506040513d601f19601f8201168201806040525081019061010c9190610679565b6060810151608082015160405163af51493760e01b8152600481018990529293506001600160701b0391821692911690600090339063af51493790602401602060405180830381865afa158015610167573d6000803e3d6000fd5b505050506040513d601f19601f8201168201806040525081019061018b9190610726565b9050806101b8576103e86101a76101a2888a610755565b610462565b6101b19190610774565b94506101ed565b6101ea836101c6838a610755565b6101d0919061078b565b836101db848a610755565b6101e5919061078b565b61053b565b94505b8461020b57604051632d1dd61360e11b815260040160405180910390fd5b505050509392505050565b60405163172358f160e31b8152600481018490526000908190339063b91ac7889060240160c060405180830381865afa158015610257573d6000803e3d6000fd5b505050506040513d601f19601f8201168201806040525081019061027b9190610679565b6060810151608082015160a083015183519394506001600160701b0392831693919092169160ff16906001600160a01b03888116911614156102ca576102c386848484610553565b945061020b565b83602001516001600160a01b0316876001600160a01b03161461030057604051632df9739b60e01b815260040160405180910390fd5b61030c86838584610553565b98975050505050505050565b60405163172358f160e31b81526004810183905260009081908190339063b91ac7889060240160c060405180830381865afa15801561035b573d6000803e3d6000fd5b505050506040513d601f19601f8201168201806040525081019061037f9190610679565b6060810151608082015160405163af51493760e01b8152600481018990529293506001600160701b0391821692911690600090339063af51493790602401602060405180830381865afa1580156103da573d6000803e3d6000fd5b505050506040513d601f19601f820116820180604052508101906103fe9190610726565b90508061040b8489610755565b610415919061078b565b9550806104228389610755565b61042c919061078b565b9450851580610439575084155b1561045757604051636e7fb8ff60e11b815260040160405180910390fd5b505050509250929050565b600181600160801b811061047b5760409190911b9060801c5b6801000000000000000081106104965760209190911b9060401c5b64010000000081106104ad5760109190911b9060201c5b6201000081106104c25760089190911b9060101c5b61010081106104d65760049190911b9060081c5b601081106104e95760029190911b9060041c5b600881106104f8578160011b91505b5080820401600190811c80830401811c80830401811c80830401811c80830401811c80830401811c80830401901c80820481811015610535578091505b50919050565b600081831061054a578161054c565b825b9392505050565b60008061056283612710610774565b61056c9087610755565b90508061057b86612710610755565b61058591906107ad565b61058f8583610755565b610599919061078b565b9695505050505050565b6000806000606084860312156105b857600080fd5b505081359360208301359350604090920135919050565b6001600160a01b03811681146105e457600080fd5b50565b6000806000606084860312156105fc57600080fd5b83359250602084013561060e816105cf565b929592945050506040919091013590565b6000806040838503121561063257600080fd5b50508035926020909101359150565b805161064c816105cf565b919050565b80516001600160701b038116811461064c57600080fd5b805160ff8116811461064c57600080fd5b600060c0828403121561068b57600080fd5b60405160c0810181811067ffffffffffffffff821117156106bc57634e487b7160e01b600052604160045260246000fd5b6040526106c883610641565b81526106d660208401610641565b60208201526106e760408401610641565b60408201526106f860608401610651565b606082015261070960808401610651565b608082015261071a60a08401610668565b60a08201529392505050565b60006020828403121561073857600080fd5b5051919050565b634e487b7160e01b600052601160045260246000fd5b600081600019048311821515161561076f5761076f61073f565b500290565b6000828210156107865761078661073f565b500390565b6000826107a857634e487b7160e01b600052601260045260246000fd5b500490565b600082198211156107c0576107c061073f565b50019056fea2646970667358221220b32d86bed229ce11044287fd075cb3cddc65e26509b1789984ece703e3ab63e064736f6c634300080a0033",
    "linkReferences": {}
  }
}